{
  "_format": "hh3-artifact-1",
  "contractName": "AmiPay",
  "sourceName": "contracts/AmiPay.sol",
  "abi": [
    {
      "inputs": [
        {
          "internalType": "address",
          "name": "_support_token",
          "type": "address"
        }
      ],
      "stateMutability": "nonpayable",
      "type": "constructor"
    },
    {
      "inputs": [],
      "name": "InsufficientAllowance",
      "type": "error"
    },
    {
      "inputs": [],
      "name": "InvalidAddress",
      "type": "error"
    },
    {
      "inputs": [],
      "name": "InvalidAmount",
      "type": "error"
    },
    {
      "anonymous": false,
      "inputs": [
        {
          "indexed": true,
          "internalType": "address",
          "name": "sponsor",
          "type": "address"
        },
        {
          "indexed": true,
          "internalType": "address",
          "name": "beneficiary",
          "type": "address"
        },
        {
          "indexed": false,
          "internalType": "uint256",
          "name": "amount",
          "type": "uint256"
        }
      ],
      "name": "AllowanceDeposited",
      "type": "event"
    },
    {
      "anonymous": false,
      "inputs": [
        {
          "indexed": true,
          "internalType": "address",
          "name": "sponsor",
          "type": "address"
        },
        {
          "indexed": true,
          "internalType": "address",
          "name": "beneficiary",
          "type": "address"
        },
        {
          "indexed": true,
          "internalType": "address",
          "name": "recipient",
          "type": "address"
        },
        {
          "indexed": false,
          "internalType": "uint256",
          "name": "amount",
          "type": "uint256"
        }
      ],
      "name": "AllowanceSpent",
      "type": "event"
    },
    {
      "inputs": [
        {
          "internalType": "address",
          "name": "",
          "type": "address"
        },
        {
          "internalType": "address",
          "name": "",
          "type": "address"
        }
      ],
      "name": "allowances",
      "outputs": [
        {
          "internalType": "uint256",
          "name": "",
          "type": "uint256"
        }
      ],
      "stateMutability": "view",
      "type": "function"
    },
    {
      "inputs": [
        {
          "internalType": "address",
          "name": "beneficiary",
          "type": "address"
        },
        {
          "internalType": "uint256",
          "name": "amount",
          "type": "uint256"
        }
      ],
      "name": "depositAllowance",
      "outputs": [],
      "stateMutability": "nonpayable",
      "type": "function"
    },
    {
      "inputs": [
        {
          "internalType": "address",
          "name": "sponsor",
          "type": "address"
        },
        {
          "internalType": "address",
          "name": "recipient",
          "type": "address"
        },
        {
          "internalType": "uint256",
          "name": "amount",
          "type": "uint256"
        }
      ],
      "name": "spendFrom",
      "outputs": [],
      "stateMutability": "nonpayable",
      "type": "function"
    },
    {
      "inputs": [],
      "name": "supportToken",
      "outputs": [
        {
          "internalType": "contract IERC20",
          "name": "",
          "type": "address"
        }
      ],
      "stateMutability": "view",
      "type": "function"
    }
  ],
  "bytecode": "0x60a060405234801561000f575f5ffd5b506040516105e53803806105e583398101604081905261002e91610066565b6001600160a01b0381166100555760405163e6c4247b60e01b815260040160405180910390fd5b6001600160a01b0316608052610093565b5f60208284031215610076575f5ffd5b81516001600160a01b038116811461008c575f5ffd5b9392505050565b60805161052d6100b85f395f818160a2015281816101c401526102f7015261052d5ff3fe608060405234801561000f575f5ffd5b506004361061004a575f3560e01c80634f9218f11461004e57806355b6ed5c14610063578063845ad8131461009d578063f3cb4c6f146100dc575b5f5ffd5b61006161005c3660046103fe565b6100ef565b005b61008a610071366004610438565b5f60208181529281526040808220909352908152205481565b6040519081526020015b60405180910390f35b6100c47f000000000000000000000000000000000000000000000000000000000000000081565b6040516001600160a01b039091168152602001610094565b6100616100ea366004610469565b61028e565b6001600160a01b0382166101165760405163e6c4247b60e01b815260040160405180910390fd5b805f036101365760405163162908e360e11b815260040160405180910390fd5b335f908152602081815260408083206001600160a01b038716845290915290205481811015610178576040516313be252b60e01b815260040160405180910390fd5b61018282826104a5565b335f908152602081815260408083206001600160a01b038981168552925291829020929092555163a9059cbb60e01b81528482166004820152602481018490527f00000000000000000000000000000000000000000000000000000000000000009091169063a9059cbb906044016020604051808303815f875af115801561020c573d5f5f3e3d5ffd5b505050506040513d601f19601f8201168201806040525081019061023091906104be565b50826001600160a01b0316336001600160a01b0316856001600160a01b03167f29cc3083438a98da7e14da7fb564c65dc9f7a246f4fea13cdc8f1afeb0facee98560405161028091815260200190565b60405180910390a450505050565b6001600160a01b0382166102b55760405163e6c4247b60e01b815260040160405180910390fd5b805f036102d55760405163162908e360e11b815260040160405180910390fd5b6040516323b872dd60e01b8152336004820152306024820152604481018290527f00000000000000000000000000000000000000000000000000000000000000006001600160a01b0316906323b872dd906064016020604051808303815f875af1158015610345573d5f5f3e3d5ffd5b505050506040513d601f19601f8201168201806040525081019061036991906104be565b506001600160a01b0382165f908152602081815260408083203384529091528120805483929061039a9084906104e4565b90915550506040518181526001600160a01b0383169033907f5f56b2b4f76f498b5ac3751d55ef801fe344d0000f3a90b194bd59bca07b41199060200160405180910390a35050565b80356001600160a01b03811681146103f9575f5ffd5b919050565b5f5f5f60608486031215610410575f5ffd5b610419846103e3565b9250610427602085016103e3565b929592945050506040919091013590565b5f5f60408385031215610449575f5ffd5b610452836103e3565b9150610460602084016103e3565b90509250929050565b5f5f6040838503121561047a575f5ffd5b610483836103e3565b946020939093013593505050565b634e487b7160e01b5f52601160045260245ffd5b818103818111156104b8576104b8610491565b92915050565b5f602082840312156104ce575f5ffd5b815180151581146104dd575f5ffd5b9392505050565b808201808211156104b8576104b861049156fea26469706673582212201393e3f02f0f52ec9840f82bf5e6febd2122b07ad2d8866a8fdbf26bfb18432b64736f6c634300081c0033",
  "linkReferences": {},
  "deployedLinkReferences": {},
  "immutableReferences": {
    "85": [
      {
        "length": 32,
        "start": 162
      },
      {
        "length": 32,
        "start": 452
      },
      {
        "length": 32,
        "start": 759
      }
    ]
  },
  "inputSourceName": "project/contracts/AmiPay.sol",
  "buildInfoId": "solc-0_8_28-2bca6a1773d04e64d774e951bb64511fa4e250c7"
}